{
  "_format": "hh-sol-artifact-1",
  "contractName": "FarmChain",
  "sourceName": "contracts/FarmChain.sol",
  "abi": [
    {
      "anonymous": false,
      "inputs": [
        {
          "indexed": false,
          "internalType": "string",
          "name": "batchId",
          "type": "string"
        },
        {
          "indexed": false,
          "internalType": "address",
          "name": "farmer",
          "type": "address"
        },
        {
          "indexed": false,
          "internalType": "string",
          "name": "cropName",
          "type": "string"
        }
      ],
      "name": "BatchRegistered",
      "type": "event"
    },
    {
      "anonymous": false,
      "inputs": [
        {
          "indexed": false,
          "internalType": "string",
          "name": "batchId",
          "type": "string"
        },
        {
          "indexed": false,
          "internalType": "string",
          "name": "handler",
          "type": "string"
        }
      ],
      "name": "HandlerAdded",
      "type": "event"
    },
    {
      "anonymous": false,
      "inputs": [
        {
          "indexed": false,
          "internalType": "string",
          "name": "batchId",
          "type": "string"
        },
        {
          "indexed": false,
          "internalType": "string",
          "name": "handler",
          "type": "string"
        }
      ],
      "name": "TamperAlert",
      "type": "event"
    },
    {
      "inputs": [
        {
          "internalType": "string",
          "name": "batchId",
          "type": "string"
        },
        {
          "internalType": "string",
          "name": "handlerInfo",
          "type": "string"
        },
        {
          "internalType": "bool",
          "name": "tamper",
          "type": "bool"
        }
      ],
      "name": "addHandler",
      "outputs": [],
      "stateMutability": "nonpayable",
      "type": "function"
    },
    {
      "inputs": [
        {
          "internalType": "string",
          "name": "",
          "type": "string"
        }
      ],
      "name": "batches",
      "outputs": [
        {
          "internalType": "string",
          "name": "batchId",
          "type": "string"
        },
        {
          "internalType": "address",
          "name": "farmer",
          "type": "address"
        },
        {
          "internalType": "string",
          "name": "cropName",
          "type": "string"
        },
        {
          "internalType": "string",
          "name": "harvestDate",
          "type": "string"
        },
        {
          "internalType": "bool",
          "name": "isOrganic",
          "type": "bool"
        },
        {
          "internalType": "uint256",
          "name": "quantityKg",
          "type": "uint256"
        },
        {
          "internalType": "bool",
          "name": "tamperDetected",
          "type": "bool"
        },
        {
          "internalType": "bool",
          "name": "exists",
          "type": "bool"
        }
      ],
      "stateMutability": "view",
      "type": "function"
    },
    {
      "inputs": [
        {
          "internalType": "address",
          "name": "",
          "type": "address"
        }
      ],
      "name": "farmers",
      "outputs": [
        {
          "internalType": "string",
          "name": "",
          "type": "string"
        }
      ],
      "stateMutability": "view",
      "type": "function"
    },
    {
      "inputs": [
        {
          "internalType": "string",
          "name": "batchId",
          "type": "string"
        }
      ],
      "name": "getBatch",
      "outputs": [
        {
          "internalType": "string",
          "name": "",
          "type": "string"
        },
        {
          "internalType": "address",
          "name": "",
          "type": "address"
        },
        {
          "internalType": "string",
          "name": "",
          "type": "string"
        },
        {
          "internalType": "bool",
          "name": "",
          "type": "bool"
        },
        {
          "internalType": "bool",
          "name": "",
          "type": "bool"
        },
        {
          "internalType": "string[]",
          "name": "",
          "type": "string[]"
        }
      ],
      "stateMutability": "view",
      "type": "function"
    },
    {
      "inputs": [
        {
          "internalType": "string",
          "name": "batchId",
          "type": "string"
        },
        {
          "internalType": "string",
          "name": "cropName",
          "type": "string"
        },
        {
          "internalType": "string",
          "name": "harvestDate",
          "type": "string"
        },
        {
          "internalType": "bool",
          "name": "isOrganic",
          "type": "bool"
        },
        {
          "internalType": "uint256",
          "name": "quantityKg",
          "type": "uint256"
        }
      ],
      "name": "registerBatch",
      "outputs": [],
      "stateMutability": "nonpayable",
      "type": "function"
    },
    {
      "inputs": [
        {
          "internalType": "string",
          "name": "name",
          "type": "string"
        }
      ],
      "name": "registerFarmer",
      "outputs": [],
      "stateMutability": "nonpayable",
      "type": "function"
    }
  ],
  "bytecode": "0x608060405234801561001057600080fd5b5061165b806100206000396000f3fe608060405234801561001057600080fd5b50600436106100625760003560e01c8063401b2168146100675780637ba7295e146100975780637ef1446a146100b3578063a883b042146100ea578063c012e97614610106578063f9ca427414610122575b600080fd5b610081600480360381019061007c9190610e64565b610157565b60405161008e91906111fc565b60405180910390f35b6100b160048036038101906100ac9190610e8d565b6101f7565b005b6100cd60048036038101906100c89190610e8d565b61024e565b6040516100e19897969594939291906112d9565b60405180910390f35b61010460048036038101906100ff9190610ece565b61048b565b005b610120600480360381019061011b9190610f4d565b61060c565b005b61013c60048036038101906101379190610e8d565b610865565b60405161014e96959493929190611263565b60405180910390f35b600160205280600052604060002060009150905080546101769061153f565b80601f01602080910402602001604051908101604052809291908181526020018280546101a29061153f565b80156101ef5780601f106101c4576101008083540402835291602001916101ef565b820191906000526020600020905b8154815290600101906020018083116101d257829003601f168201915b505050505081565b80600160003373ffffffffffffffffffffffffffffffffffffffff1673ffffffffffffffffffffffffffffffffffffffff168152602001908152602001600020908051906020019061024a929190610c56565b5050565b6000818051602081018201805184825260208301602085012081835280955050505050506000915090508060000180546102879061153f565b80601f01602080910402602001604051908101604052809291908181526020018280546102b39061153f565b80156103005780601f106102d557610100808354040283529160200191610300565b820191906000526020600020905b8154815290600101906020018083116102e357829003601f168201915b5050505050908060010160009054906101000a900473ffffffffffffffffffffffffffffffffffffffff169080600201805461033b9061153f565b80601f01602080910402602001604051908101604052809291908181526020018280546103679061153f565b80156103b45780601f10610389576101008083540402835291602001916103b4565b820191906000526020600020905b81548152906001019060200180831161039757829003601f168201915b5050505050908060030180546103c99061153f565b80601f01602080910402602001604051908101604052809291908181526020018280546103f59061153f565b80156104425780601f1061041757610100808354040283529160200191610442565b820191906000526020600020905b81548152906001019060200180831161042557829003601f168201915b5050505050908060040160009054906101000a900460ff16908060050154908060060160009054906101000a900460ff16908060080160009054906101000a900460ff16905088565b60008360405161049b91906111e5565b908152602001604051809103902060080160009054906101000a900460ff166104f9576040517f08c379a00000000000000000000000000000000000000000000000000000000081526004016104f0906113c3565b60405180910390fd5b60008360405161050991906111e5565b908152602001604051809103902060070182908060018154018082558091505060019003906000526020600020016000909190919091509080519060200190610553929190610c56565b5080156105ce57600160008460405161056c91906111e5565b908152602001604051809103902060060160006101000a81548160ff0219169083151502179055507fc1c022b8044940142ac9ae4bb8c2e4536721bd23080a8e66cb1ecaa894b81b8383836040516105c592919061136c565b60405180910390a15b7f5025ab643cc14602bbc15c2233559bb315875a5252e18e2a9199bb56d729854283836040516105ff92919061136c565b60405180910390a1505050565b60008560405161061c91906111e5565b908152602001604051809103902060080160009054906101000a900460ff161561067b576040517f08c379a0000000000000000000000000000000000000000000000000000000008152600401610672906113a3565b60405180910390fd5b60606040518061012001604052808781526020013373ffffffffffffffffffffffffffffffffffffffff1681526020018681526020018581526020018415158152602001838152602001600015158152602001828152602001600115158152506000876040516106eb91906111e5565b90815260200160405180910390206000820151816000019080519060200190610715929190610c56565b5060208201518160010160006101000a81548173ffffffffffffffffffffffffffffffffffffffff021916908373ffffffffffffffffffffffffffffffffffffffff1602179055506040820151816002019080519060200190610779929190610c56565b506060820151816003019080519060200190610796929190610c56565b5060808201518160040160006101000a81548160ff02191690831515021790555060a0820151816005015560c08201518160060160006101000a81548160ff02191690831515021790555060e08201518160070190805190602001906107fd929190610cdc565b506101008201518160080160006101000a81548160ff0219169083151502179055509050507fc49c7db3f815af45ed1b42c8a1822ee267b994ccb6343f2b3a1015458ad5c1f68633876040516108559392919061121e565b60405180910390a1505050505050565b60606000606060008060606000808860405161088191906111e5565b9081526020016040518091039020604051806101200160405290816000820180546108ab9061153f565b80601f01602080910402602001604051908101604052809291908181526020018280546108d79061153f565b80156109245780601f106108f957610100808354040283529160200191610924565b820191906000526020600020905b81548152906001019060200180831161090757829003601f168201915b505050505081526020016001820160009054906101000a900473ffffffffffffffffffffffffffffffffffffffff1673ffffffffffffffffffffffffffffffffffffffff1673ffffffffffffffffffffffffffffffffffffffff1681526020016002820180546109939061153f565b80601f01602080910402602001604051908101604052809291908181526020018280546109bf9061153f565b8015610a0c5780601f106109e157610100808354040283529160200191610a0c565b820191906000526020600020905b8154815290600101906020018083116109ef57829003601f168201915b50505050508152602001600382018054610a259061153f565b80601f0160208091040260200160405190810160405280929190818152602001828054610a519061153f565b8015610a9e5780601f10610a7357610100808354040283529160200191610a9e565b820191906000526020600020905b815481529060010190602001808311610a8157829003601f168201915b505050505081526020016004820160009054906101000a900460ff16151515158152602001600582015481526020016006820160009054906101000a900460ff1615151515815260200160078201805480602002602001604051908101604052809291908181526020016000905b82821015610bb8578382906000526020600020018054610b2b9061153f565b80601f0160208091040260200160405190810160405280929190818152602001828054610b579061153f565b8015610ba45780601f10610b7957610100808354040283529160200191610ba4565b820191906000526020600020905b815481529060010190602001808311610b8757829003601f168201915b505050505081526020019060010190610b0c565b5050505081526020016008820160009054906101000a900460ff1615151515815250509050806101000151610c22576040517f08c379a0000000000000000000000000000000000000000000000000000000008152600401610c19906113c3565b60405180910390fd5b80604001518160200151826060015183608001518460c001518560e001519650965096509650965096505091939550919395565b828054610c629061153f565b90600052602060002090601f016020900481019282610c845760008555610ccb565b82601f10610c9d57805160ff1916838001178555610ccb565b82800160010185558215610ccb579182015b82811115610cca578251825591602001919060010190610caf565b5b509050610cd89190610d3c565b5090565b828054828255906000526020600020908101928215610d2b579160200282015b82811115610d2a578251829080519060200190610d1a929190610c56565b5091602001919060010190610cfc565b5b509050610d389190610d59565b5090565b5b80821115610d55576000816000905550600101610d3d565b5090565b5b80821115610d795760008181610d709190610d7d565b50600101610d5a565b5090565b508054610d899061153f565b6000825580601f10610d9b5750610dba565b601f016020900490600052602060002090810190610db99190610d3c565b5b50565b6000610dd0610dcb84611414565b6113e3565b905082815260208101848484011115610de857600080fd5b610df38482856114fd565b509392505050565b600081359050610e0a816115e0565b92915050565b600081359050610e1f816115f7565b92915050565b600082601f830112610e3657600080fd5b8135610e46848260208601610dbd565b91505092915050565b600081359050610e5e8161160e565b92915050565b600060208284031215610e7657600080fd5b6000610e8484828501610dfb565b91505092915050565b600060208284031215610e9f57600080fd5b600082013567ffffffffffffffff811115610eb957600080fd5b610ec584828501610e25565b91505092915050565b600080600060608486031215610ee357600080fd5b600084013567ffffffffffffffff811115610efd57600080fd5b610f0986828701610e25565b935050602084013567ffffffffffffffff811115610f2657600080fd5b610f3286828701610e25565b9250506040610f4386828701610e10565b9150509250925092565b600080600080600060a08688031215610f6557600080fd5b600086013567ffffffffffffffff811115610f7f57600080fd5b610f8b88828901610e25565b955050602086013567ffffffffffffffff811115610fa857600080fd5b610fb488828901610e25565b945050604086013567ffffffffffffffff811115610fd157600080fd5b610fdd88828901610e25565b9350506060610fee88828901610e10565b9250506080610fff88828901610e4f565b9150509295509295909350565b600061101883836110b3565b905092915050565b611029816114b5565b82525050565b600061103a82611454565b6110448185611477565b93508360208202850161105685611444565b8060005b858110156110925784840389528151611073858261100c565b945061107e8361146a565b925060208a0199505060018101905061105a565b50829750879550505050505092915050565b6110ad816114c7565b82525050565b60006110be8261145f565b6110c88185611488565b93506110d881856020860161150c565b6110e1816115cf565b840191505092915050565b60006110f78261145f565b6111018185611499565b935061111181856020860161150c565b61111a816115cf565b840191505092915050565b60006111308261145f565b61113a81856114aa565b935061114a81856020860161150c565b80840191505092915050565b6000611163601883611499565b91507f426174636820616c7265616479207265676973746572656400000000000000006000830152602082019050919050565b60006111a3600f83611499565b91507f4261746368206e6f7420666f756e6400000000000000000000000000000000006000830152602082019050919050565b6111df816114f3565b82525050565b60006111f18284611125565b915081905092915050565b6000602082019050818103600083015261121681846110ec565b905092915050565b6000606082019050818103600083015261123881866110ec565b90506112476020830185611020565b818103604083015261125981846110ec565b9050949350505050565b600060c082019050818103600083015261127d81896110ec565b905061128c6020830188611020565b818103604083015261129e81876110ec565b90506112ad60608301866110a4565b6112ba60808301856110a4565b81810360a08301526112cc818461102f565b9050979650505050505050565b60006101008201905081810360008301526112f4818b6110ec565b9050611303602083018a611020565b818103604083015261131581896110ec565b9050818103606083015261132981886110ec565b905061133860808301876110a4565b61134560a08301866111d6565b61135260c08301856110a4565b61135f60e08301846110a4565b9998505050505050505050565b6000604082019050818103600083015261138681856110ec565b9050818103602083015261139a81846110ec565b90509392505050565b600060208201905081810360008301526113bc81611156565b9050919050565b600060208201905081810360008301526113dc81611196565b9050919050565b6000604051905081810181811067ffffffffffffffff8211171561140a576114096115a0565b5b8060405250919050565b600067ffffffffffffffff82111561142f5761142e6115a0565b5b601f19601f8301169050602081019050919050565b6000819050602082019050919050565b600081519050919050565b600081519050919050565b6000602082019050919050565b600082825260208201905092915050565b600082825260208201905092915050565b600082825260208201905092915050565b600081905092915050565b60006114c0826114d3565b9050919050565b60008115159050919050565b600073ffffffffffffffffffffffffffffffffffffffff82169050919050565b6000819050919050565b82818337600083830152505050565b60005b8381101561152a57808201518184015260208101905061150f565b83811115611539576000848401525b50505050565b6000600282049050600182168061155757607f821691505b6020821081141561156b5761156a611571565b5b50919050565b7f4e487b7100000000000000000000000000000000000000000000000000000000600052602260045260246000fd5b7f4e487b7100000000000000000000000000000000000000000000000000000000600052604160045260246000fd5b6000601f19601f8301169050919050565b6115e9816114b5565b81146115f457600080fd5b50565b611600816114c7565b811461160b57600080fd5b50565b611617816114f3565b811461162257600080fd5b5056fea2646970667358221220dfe086f42ec515bf0d1c7073923eda7bb44ab7e6b712edf8a24e38d2c094f3d764736f6c63430008000033",
  "linkReferences": {},
  "deployedLinkReferences": {}
}