{
  "_format": "hh-sol-artifact-1",
  "contractName": "FarmChain",
  "sourceName": "contracts/FarmChain.sol",
  "abi": [
    {
      "inputs": [],
      "stateMutability": "nonpayable",
      "type": "constructor"
    },
    {
      "anonymous": false,
      "inputs": [
        {
          "indexed": false,
          "internalType": "string",
          "name": "batchId",
          "type": "string"
        },
        {
          "indexed": false,
          "internalType": "address",
          "name": "farmer",
          "type": "address"
        },
        {
          "indexed": false,
          "internalType": "string",
          "name": "cropName",
          "type": "string"
        }
      ],
      "name": "BatchRegistered",
      "type": "event"
    },
    {
      "anonymous": false,
      "inputs": [
        {
          "indexed": false,
          "internalType": "string",
          "name": "batchId",
          "type": "string"
        },
        {
          "indexed": false,
          "internalType": "uint256",
          "name": "timestamp",
          "type": "uint256"
        }
      ],
      "name": "BatchSuspended",
      "type": "event"
    },
    {
      "anonymous": false,
      "inputs": [
        {
          "indexed": false,
          "internalType": "string",
          "name": "batchId",
          "type": "string"
        },
        {
          "indexed": false,
          "internalType": "string",
          "name": "handler",
          "type": "string"
        }
      ],
      "name": "HandlerAdded",
      "type": "event"
    },
    {
      "anonymous": false,
      "inputs": [
        {
          "indexed": false,
          "internalType": "string",
          "name": "batchId",
          "type": "string"
        },
        {
          "indexed": false,
          "internalType": "uint256",
          "name": "ecValue",
          "type": "uint256"
        },
        {
          "indexed": false,
          "internalType": "bool",
          "name": "tampered",
          "type": "bool"
        },
        {
          "indexed": false,
          "internalType": "bool",
          "name": "approved",
          "type": "bool"
        }
      ],
      "name": "SensorReadingRecorded",
      "type": "event"
    },
    {
      "anonymous": false,
      "inputs": [
        {
          "indexed": false,
          "internalType": "string",
          "name": "batchId",
          "type": "string"
        },
        {
          "indexed": false,
          "internalType": "string",
          "name": "handler",
          "type": "string"
        }
      ],
      "name": "TamperAlert",
      "type": "event"
    },
    {
      "inputs": [
        {
          "internalType": "string",
          "name": "batchId",
          "type": "string"
        },
        {
          "internalType": "string",
          "name": "handlerInfo",
          "type": "string"
        },
        {
          "internalType": "bool",
          "name": "tamper",
          "type": "bool"
        }
      ],
      "name": "addHandler",
      "outputs": [],
      "stateMutability": "nonpayable",
      "type": "function"
    },
    {
      "inputs": [
        {
          "internalType": "string",
          "name": "",
          "type": "string"
        }
      ],
      "name": "batches",
      "outputs": [
        {
          "internalType": "string",
          "name": "batchId",
          "type": "string"
        },
        {
          "internalType": "address",
          "name": "farmer",
          "type": "address"
        },
        {
          "internalType": "string",
          "name": "cropName",
          "type": "string"
        },
        {
          "internalType": "string",
          "name": "harvestDate",
          "type": "string"
        },
        {
          "internalType": "bool",
          "name": "isOrganic",
          "type": "bool"
        },
        {
          "internalType": "uint256",
          "name": "quantityKg",
          "type": "uint256"
        },
        {
          "internalType": "bool",
          "name": "tamperDetected",
          "type": "bool"
        },
        {
          "internalType": "bool",
          "name": "exists",
          "type": "bool"
        }
      ],
      "stateMutability": "view",
      "type": "function"
    },
    {
      "inputs": [
        {
          "internalType": "address",
          "name": "",
          "type": "address"
        }
      ],
      "name": "farmers",
      "outputs": [
        {
          "internalType": "string",
          "name": "",
          "type": "string"
        }
      ],
      "stateMutability": "view",
      "type": "function"
    },
    {
      "inputs": [
        {
          "internalType": "string",
          "name": "batchId",
          "type": "string"
        }
      ],
      "name": "getBatch",
      "outputs": [
        {
          "internalType": "string",
          "name": "",
          "type": "string"
        },
        {
          "internalType": "address",
          "name": "",
          "type": "address"
        },
        {
          "internalType": "string",
          "name": "",
          "type": "string"
        },
        {
          "internalType": "bool",
          "name": "",
          "type": "bool"
        },
        {
          "internalType": "bool",
          "name": "",
          "type": "bool"
        },
        {
          "internalType": "string[]",
          "name": "",
          "type": "string[]"
        }
      ],
      "stateMutability": "view",
      "type": "function"
    },
    {
      "inputs": [
        {
          "internalType": "string",
          "name": "batchId",
          "type": "string"
        }
      ],
      "name": "isSuspended",
      "outputs": [
        {
          "internalType": "bool",
          "name": "",
          "type": "bool"
        }
      ],
      "stateMutability": "view",
      "type": "function"
    },
    {
      "inputs": [],
      "name": "owner",
      "outputs": [
        {
          "internalType": "address",
          "name": "",
          "type": "address"
        }
      ],
      "stateMutability": "view",
      "type": "function"
    },
    {
      "inputs": [
        {
          "internalType": "string",
          "name": "batchId",
          "type": "string"
        },
        {
          "internalType": "uint256",
          "name": "ecValue",
          "type": "uint256"
        },
        {
          "internalType": "bool",
          "name": "tampered",
          "type": "bool"
        }
      ],
      "name": "recordSensorReading",
      "outputs": [],
      "stateMutability": "nonpayable",
      "type": "function"
    },
    {
      "inputs": [
        {
          "internalType": "string",
          "name": "batchId",
          "type": "string"
        },
        {
          "internalType": "string",
          "name": "cropName",
          "type": "string"
        },
        {
          "internalType": "string",
          "name": "harvestDate",
          "type": "string"
        },
        {
          "internalType": "bool",
          "name": "isOrganic",
          "type": "bool"
        },
        {
          "internalType": "uint256",
          "name": "quantityKg",
          "type": "uint256"
        }
      ],
      "name": "registerBatch",
      "outputs": [],
      "stateMutability": "nonpayable",
      "type": "function"
    },
    {
      "inputs": [
        {
          "internalType": "string",
          "name": "name",
          "type": "string"
        }
      ],
      "name": "registerFarmer",
      "outputs": [],
      "stateMutability": "nonpayable",
      "type": "function"
    },
    {
      "inputs": [
        {
          "internalType": "string",
          "name": "",
          "type": "string"
        }
      ],
      "name": "sensorApproved",
      "outputs": [
        {
          "internalType": "bool",
          "name": "",
          "type": "bool"
        }
      ],
      "stateMutability": "view",
      "type": "function"
    },
    {
      "inputs": [
        {
          "internalType": "string",
          "name": "batchId",
          "type": "string"
        }
      ],
      "name": "suspendBatch",
      "outputs": [],
      "stateMutability": "nonpayable",
      "type": "function"
    },
    {
      "inputs": [
        {
          "internalType": "string",
          "name": "",
          "type": "string"
        }
      ],
      "name": "suspendedBatches",
      "outputs": [
        {
          "internalType": "bool",
          "name": "",
          "type": "bool"
        }
      ],
      "stateMutability": "view",
      "type": "function"
    }
  ],
  "bytecode": "0x608060405234801561001057600080fd5b50336000806101000a81548173ffffffffffffffffffffffffffffffffffffffff021916908373ffffffffffffffffffffffffffffffffffffffff160217905550611bf8806100606000396000f3fe608060405234801561001057600080fd5b50600436106100b45760003560e01c806389158cd61161007157806389158cd6146101b85780638da5cb5b146101d4578063a883b042146101f2578063c012e9761461020e578063d09a41ec1461022a578063f9ca42741461025a576100b4565b8063401b2168146100b957806358ebc26c146100e95780635fb43022146101055780637ba7295e146101355780637ef1446a14610151578063815d4e4214610188575b600080fd5b6100d360048036038101906100ce9190611288565b61028f565b6040516100e091906116fd565b60405180910390f35b61010360048036038101906100fe91906112b1565b61032f565b005b61011f600480360381019061011a91906112b1565b610430565b60405161012c91906116e2565b60405180910390f35b61014f600480360381019061014a91906112b1565b610465565b005b61016b600480360381019061016691906112b1565b6104bc565b60405161017f9897969594939291906117da565b60405180910390f35b6101a2600480360381019061019d91906112b1565b6106f9565b6040516101af91906116e2565b60405180910390f35b6101d260048036038101906101cd9190611430565b61072f565b005b6101dc610855565b6040516101e991906116c7565b60405180910390f35b61020c600480360381019061020791906112f2565b610879565b005b61022860048036038101906102239190611371565b6109f9565b005b610244600480360381019061023f91906112b1565b610c52565b60405161025191906116e2565b60405180910390f35b610274600480360381019061026f91906112b1565b610c88565b60405161028696959493929190611764565b60405180910390f35b600260205280600052604060002060009150905080546102ae90611adc565b80601f01602080910402602001604051908101604052809291908181526020018280546102da90611adc565b80156103275780601f106102fc57610100808354040283529160200191610327565b820191906000526020600020905b81548152906001019060200180831161030a57829003601f168201915b505050505081565b60008054906101000a900473ffffffffffffffffffffffffffffffffffffffff1673ffffffffffffffffffffffffffffffffffffffff163373ffffffffffffffffffffffffffffffffffffffff16146103bd576040517f08c379a00000000000000000000000000000000000000000000000000000000081526004016103b490611940565b60405180910390fd5b60016003826040516103cf91906116b0565b908152602001604051809103902060006101000a81548160ff0219169083151502179055507f4637ed489bb91fdf9551831eea82b18eba0fb5b7d17452c9cf36d24259ad24c781426040516104259291906118a4565b60405180910390a150565b600060038260405161044291906116b0565b908152602001604051809103902060009054906101000a900460ff169050919050565b80600260003373ffffffffffffffffffffffffffffffffffffffff1673ffffffffffffffffffffffffffffffffffffffff16815260200190815260200160002090805190602001906104b892919061107a565b5050565b6001818051602081018201805184825260208301602085012081835280955050505050506000915090508060000180546104f590611adc565b80601f016020809104026020016040519081016040528092919081815260200182805461052190611adc565b801561056e5780601f106105435761010080835404028352916020019161056e565b820191906000526020600020905b81548152906001019060200180831161055157829003601f168201915b5050505050908060010160009054906101000a900473ffffffffffffffffffffffffffffffffffffffff16908060020180546105a990611adc565b80601f01602080910402602001604051908101604052809291908181526020018280546105d590611adc565b80156106225780601f106105f757610100808354040283529160200191610622565b820191906000526020600020905b81548152906001019060200180831161060557829003601f168201915b50505050509080600301805461063790611adc565b80601f016020809104026020016040519081016040528092919081815260200182805461066390611adc565b80156106b05780601f10610685576101008083540402835291602001916106b0565b820191906000526020600020905b81548152906001019060200180831161069357829003601f168201915b5050505050908060040160009054906101000a900460ff16908060050154908060060160009054906101000a900460ff16908060080160009054906101000a900460ff16905088565b6003818051602081018201805184825260208301602085012081835280955050505050506000915054906101000a900460ff1681565b60008054906101000a900473ffffffffffffffffffffffffffffffffffffffff1673ffffffffffffffffffffffffffffffffffffffff163373ffffffffffffffffffffffffffffffffffffffff16146107bd576040517f08c379a00000000000000000000000000000000000000000000000000000000081526004016107b490611940565b60405180910390fd5b6000811580156107cd5750600083115b80156107da575060fa8311155b9050806004856040516107ed91906116b0565b908152602001604051809103902060006101000a81548160ff0219169083151502179055507fb63d1b9a927453a541c1bf0ee98cd6dc40e1917526f1d0a58dbeab581d93eeff8484848460405161084794939291906118d4565b60405180910390a150505050565b60008054906101000a900473ffffffffffffffffffffffffffffffffffffffff1681565b60018360405161088991906116b0565b908152602001604051809103902060080160009054906101000a900460ff166108e7576040517f08c379a00000000000000000000000000000000000000000000000000000000081526004016108de90611960565b60405180910390fd5b6001836040516108f791906116b0565b90815260200160405180910390206007018290806001815401808255809150506001900390600052602060002001600090919091909150908051906020019061094192919061107a565b5080156109bb576001808460405161095991906116b0565b908152602001604051809103902060060160006101000a81548160ff0219169083151502179055507fc1c022b8044940142ac9ae4bb8c2e4536721bd23080a8e66cb1ecaa894b81b8383836040516109b292919061186d565b60405180910390a15b7f5025ab643cc14602bbc15c2233559bb315875a5252e18e2a9199bb56d729854283836040516109ec92919061186d565b60405180910390a1505050565b600185604051610a0991906116b0565b908152602001604051809103902060080160009054906101000a900460ff1615610a68576040517f08c379a0000000000000000000000000000000000000000000000000000000008152600401610a5f90611920565b60405180910390fd5b60606040518061012001604052808781526020013373ffffffffffffffffffffffffffffffffffffffff168152602001868152602001858152602001841515815260200183815260200160001515815260200182815260200160011515815250600187604051610ad891906116b0565b90815260200160405180910390206000820151816000019080519060200190610b0292919061107a565b5060208201518160010160006101000a81548173ffffffffffffffffffffffffffffffffffffffff021916908373ffffffffffffffffffffffffffffffffffffffff1602179055506040820151816002019080519060200190610b6692919061107a565b506060820151816003019080519060200190610b8392919061107a565b5060808201518160040160006101000a81548160ff02191690831515021790555060a0820151816005015560c08201518160060160006101000a81548160ff02191690831515021790555060e0820151816007019080519060200190610bea929190611100565b506101008201518160080160006101000a81548160ff0219169083151502179055509050507fc49c7db3f815af45ed1b42c8a1822ee267b994ccb6343f2b3a1015458ad5c1f6863387604051610c429392919061171f565b60405180910390a1505050505050565b6004818051602081018201805184825260208301602085012081835280955050505050506000915054906101000a900460ff1681565b60606000606060008060606000600188604051610ca591906116b0565b908152602001604051809103902060405180610120016040529081600082018054610ccf90611adc565b80601f0160208091040260200160405190810160405280929190818152602001828054610cfb90611adc565b8015610d485780601f10610d1d57610100808354040283529160200191610d48565b820191906000526020600020905b815481529060010190602001808311610d2b57829003601f168201915b505050505081526020016001820160009054906101000a900473ffffffffffffffffffffffffffffffffffffffff1673ffffffffffffffffffffffffffffffffffffffff1673ffffffffffffffffffffffffffffffffffffffff168152602001600282018054610db790611adc565b80601f0160208091040260200160405190810160405280929190818152602001828054610de390611adc565b8015610e305780601f10610e0557610100808354040283529160200191610e30565b820191906000526020600020905b815481529060010190602001808311610e1357829003601f168201915b50505050508152602001600382018054610e4990611adc565b80601f0160208091040260200160405190810160405280929190818152602001828054610e7590611adc565b8015610ec25780601f10610e9757610100808354040283529160200191610ec2565b820191906000526020600020905b815481529060010190602001808311610ea557829003601f168201915b505050505081526020016004820160009054906101000a900460ff16151515158152602001600582015481526020016006820160009054906101000a900460ff1615151515815260200160078201805480602002602001604051908101604052809291908181526020016000905b82821015610fdc578382906000526020600020018054610f4f90611adc565b80601f0160208091040260200160405190810160405280929190818152602001828054610f7b90611adc565b8015610fc85780601f10610f9d57610100808354040283529160200191610fc8565b820191906000526020600020905b815481529060010190602001808311610fab57829003601f168201915b505050505081526020019060010190610f30565b5050505081526020016008820160009054906101000a900460ff1615151515815250509050806101000151611046576040517f08c379a000000000000000000000000000000000000000000000000000000000815260040161103d90611960565b60405180910390fd5b80604001518160200151826060015183608001518460c001518560e001519650965096509650965096505091939550919395565b82805461108690611adc565b90600052602060002090601f0160209004810192826110a857600085556110ef565b82601f106110c157805160ff19168380011785556110ef565b828001600101855582156110ef579182015b828111156110ee5782518255916020019190600101906110d3565b5b5090506110fc9190611160565b5090565b82805482825590600052602060002090810192821561114f579160200282015b8281111561114e57825182908051906020019061113e92919061107a565b5091602001919060010190611120565b5b50905061115c919061117d565b5090565b5b80821115611179576000816000905550600101611161565b5090565b5b8082111561119d576000818161119491906111a1565b5060010161117e565b5090565b5080546111ad90611adc565b6000825580601f106111bf57506111de565b601f0160209004906000526020600020908101906111dd9190611160565b5b50565b60006111f46111ef846119b1565b611980565b90508281526020810184848401111561120c57600080fd5b611217848285611a9a565b509392505050565b60008135905061122e81611b7d565b92915050565b60008135905061124381611b94565b92915050565b600082601f83011261125a57600080fd5b813561126a8482602086016111e1565b91505092915050565b60008135905061128281611bab565b92915050565b60006020828403121561129a57600080fd5b60006112a88482850161121f565b91505092915050565b6000602082840312156112c357600080fd5b600082013567ffffffffffffffff8111156112dd57600080fd5b6112e984828501611249565b91505092915050565b60008060006060848603121561130757600080fd5b600084013567ffffffffffffffff81111561132157600080fd5b61132d86828701611249565b935050602084013567ffffffffffffffff81111561134a57600080fd5b61135686828701611249565b925050604061136786828701611234565b9150509250925092565b600080600080600060a0868803121561138957600080fd5b600086013567ffffffffffffffff8111156113a357600080fd5b6113af88828901611249565b955050602086013567ffffffffffffffff8111156113cc57600080fd5b6113d888828901611249565b945050604086013567ffffffffffffffff8111156113f557600080fd5b61140188828901611249565b935050606061141288828901611234565b925050608061142388828901611273565b9150509295509295909350565b60008060006060848603121561144557600080fd5b600084013567ffffffffffffffff81111561145f57600080fd5b61146b86828701611249565b935050602061147c86828701611273565b925050604061148d86828701611234565b9150509250925092565b60006114a3838361153e565b905092915050565b6114b481611a52565b82525050565b60006114c5826119f1565b6114cf8185611a14565b9350836020820285016114e1856119e1565b8060005b8581101561151d57848403895281516114fe8582611497565b945061150983611a07565b925060208a019950506001810190506114e5565b50829750879550505050505092915050565b61153881611a64565b82525050565b6000611549826119fc565b6115538185611a25565b9350611563818560208601611aa9565b61156c81611b6c565b840191505092915050565b6000611582826119fc565b61158c8185611a36565b935061159c818560208601611aa9565b6115a581611b6c565b840191505092915050565b60006115bb826119fc565b6115c58185611a47565b93506115d5818560208601611aa9565b80840191505092915050565b60006115ee601883611a36565b91507f426174636820616c7265616479207265676973746572656400000000000000006000830152602082019050919050565b600061162e600983611a36565b91507f4e6f74206f776e657200000000000000000000000000000000000000000000006000830152602082019050919050565b600061166e600f83611a36565b91507f4261746368206e6f7420666f756e6400000000000000000000000000000000006000830152602082019050919050565b6116aa81611a90565b82525050565b60006116bc82846115b0565b915081905092915050565b60006020820190506116dc60008301846114ab565b92915050565b60006020820190506116f7600083018461152f565b92915050565b600060208201905081810360008301526117178184611577565b905092915050565b600060608201905081810360008301526117398186611577565b905061174860208301856114ab565b818103604083015261175a8184611577565b9050949350505050565b600060c082019050818103600083015261177e8189611577565b905061178d60208301886114ab565b818103604083015261179f8187611577565b90506117ae606083018661152f565b6117bb608083018561152f565b81810360a08301526117cd81846114ba565b9050979650505050505050565b60006101008201905081810360008301526117f5818b611577565b9050611804602083018a6114ab565b81810360408301526118168189611577565b9050818103606083015261182a8188611577565b9050611839608083018761152f565b61184660a08301866116a1565b61185360c083018561152f565b61186060e083018461152f565b9998505050505050505050565b600060408201905081810360008301526118878185611577565b9050818103602083015261189b8184611577565b90509392505050565b600060408201905081810360008301526118be8185611577565b90506118cd60208301846116a1565b9392505050565b600060808201905081810360008301526118ee8187611577565b90506118fd60208301866116a1565b61190a604083018561152f565b611917606083018461152f565b95945050505050565b60006020820190508181036000830152611939816115e1565b9050919050565b6000602082019050818103600083015261195981611621565b9050919050565b6000602082019050818103600083015261197981611661565b9050919050565b6000604051905081810181811067ffffffffffffffff821117156119a7576119a6611b3d565b5b8060405250919050565b600067ffffffffffffffff8211156119cc576119cb611b3d565b5b601f19601f8301169050602081019050919050565b6000819050602082019050919050565b600081519050919050565b600081519050919050565b6000602082019050919050565b600082825260208201905092915050565b600082825260208201905092915050565b600082825260208201905092915050565b600081905092915050565b6000611a5d82611a70565b9050919050565b60008115159050919050565b600073ffffffffffffffffffffffffffffffffffffffff82169050919050565b6000819050919050565b82818337600083830152505050565b60005b83811015611ac7578082015181840152602081019050611aac565b83811115611ad6576000848401525b50505050565b60006002820490506001821680611af457607f821691505b60208210811415611b0857611b07611b0e565b5b50919050565b7f4e487b7100000000000000000000000000000000000000000000000000000000600052602260045260246000fd5b7f4e487b7100000000000000000000000000000000000000000000000000000000600052604160045260246000fd5b6000601f19601f8301169050919050565b611b8681611a52565b8114611b9157600080fd5b50565b611b9d81611a64565b8114611ba857600080fd5b50565b611bb481611a90565b8114611bbf57600080fd5b5056fea26469706673582212200a9d28b318ff8d397e12f905ecaa9f02afe125acca29f638039ffabc2b4630cd64736f6c63430008000033",
  "linkReferences": {},
  "deployedLinkReferences": {}
}