{
  "_format": "hh-sol-artifact-1",
  "contractName": "FarmChain",
  "sourceName": "contracts/FarmChain.sol",
  "abi": [
    {
      "inputs": [],
      "stateMutability": "nonpayable",
      "type": "constructor"
    },
    {
      "anonymous": false,
      "inputs": [
        {
          "indexed": false,
          "internalType": "string",
          "name": "batchId",
          "type": "string"
        },
        {
          "indexed": false,
          "internalType": "address",
          "name": "farmer",
          "type": "address"
        },
        {
          "indexed": false,
          "internalType": "string",
          "name": "cropName",
          "type": "string"
        }
      ],
      "name": "BatchRegistered",
      "type": "event"
    },
    {
      "anonymous": false,
      "inputs": [
        {
          "indexed": false,
          "internalType": "string",
          "name": "batchId",
          "type": "string"
        },
        {
          "indexed": false,
          "internalType": "uint256",
          "name": "timestamp",
          "type": "uint256"
        }
      ],
      "name": "BatchSuspended",
      "type": "event"
    },
    {
      "anonymous": false,
      "inputs": [
        {
          "indexed": false,
          "internalType": "string",
          "name": "batchId",
          "type": "string"
        },
        {
          "indexed": false,
          "internalType": "string",
          "name": "handler",
          "type": "string"
        }
      ],
      "name": "HandlerAdded",
      "type": "event"
    },
    {
      "anonymous": false,
      "inputs": [
        {
          "indexed": false,
          "internalType": "string",
          "name": "batchId",
          "type": "string"
        },
        {
          "indexed": false,
          "internalType": "string",
          "name": "handler",
          "type": "string"
        }
      ],
      "name": "TamperAlert",
      "type": "event"
    },
    {
      "inputs": [
        {
          "internalType": "string",
          "name": "batchId",
          "type": "string"
        },
        {
          "internalType": "string",
          "name": "handlerInfo",
          "type": "string"
        },
        {
          "internalType": "bool",
          "name": "tamper",
          "type": "bool"
        }
      ],
      "name": "addHandler",
      "outputs": [],
      "stateMutability": "nonpayable",
      "type": "function"
    },
    {
      "inputs": [
        {
          "internalType": "string",
          "name": "",
          "type": "string"
        }
      ],
      "name": "batches",
      "outputs": [
        {
          "internalType": "string",
          "name": "batchId",
          "type": "string"
        },
        {
          "internalType": "address",
          "name": "farmer",
          "type": "address"
        },
        {
          "internalType": "string",
          "name": "cropName",
          "type": "string"
        },
        {
          "internalType": "string",
          "name": "harvestDate",
          "type": "string"
        },
        {
          "internalType": "bool",
          "name": "isOrganic",
          "type": "bool"
        },
        {
          "internalType": "uint256",
          "name": "quantityKg",
          "type": "uint256"
        },
        {
          "internalType": "bool",
          "name": "tamperDetected",
          "type": "bool"
        },
        {
          "internalType": "bool",
          "name": "exists",
          "type": "bool"
        }
      ],
      "stateMutability": "view",
      "type": "function"
    },
    {
      "inputs": [
        {
          "internalType": "address",
          "name": "",
          "type": "address"
        }
      ],
      "name": "farmers",
      "outputs": [
        {
          "internalType": "string",
          "name": "",
          "type": "string"
        }
      ],
      "stateMutability": "view",
      "type": "function"
    },
    {
      "inputs": [
        {
          "internalType": "string",
          "name": "batchId",
          "type": "string"
        }
      ],
      "name": "getBatch",
      "outputs": [
        {
          "internalType": "string",
          "name": "",
          "type": "string"
        },
        {
          "internalType": "address",
          "name": "",
          "type": "address"
        },
        {
          "internalType": "string",
          "name": "",
          "type": "string"
        },
        {
          "internalType": "bool",
          "name": "",
          "type": "bool"
        },
        {
          "internalType": "bool",
          "name": "",
          "type": "bool"
        },
        {
          "internalType": "string[]",
          "name": "",
          "type": "string[]"
        }
      ],
      "stateMutability": "view",
      "type": "function"
    },
    {
      "inputs": [
        {
          "internalType": "string",
          "name": "batchId",
          "type": "string"
        }
      ],
      "name": "isSuspended",
      "outputs": [
        {
          "internalType": "bool",
          "name": "",
          "type": "bool"
        }
      ],
      "stateMutability": "view",
      "type": "function"
    },
    {
      "inputs": [],
      "name": "owner",
      "outputs": [
        {
          "internalType": "address",
          "name": "",
          "type": "address"
        }
      ],
      "stateMutability": "view",
      "type": "function"
    },
    {
      "inputs": [
        {
          "internalType": "string",
          "name": "batchId",
          "type": "string"
        },
        {
          "internalType": "string",
          "name": "cropName",
          "type": "string"
        },
        {
          "internalType": "string",
          "name": "harvestDate",
          "type": "string"
        },
        {
          "internalType": "bool",
          "name": "isOrganic",
          "type": "bool"
        },
        {
          "internalType": "uint256",
          "name": "quantityKg",
          "type": "uint256"
        }
      ],
      "name": "registerBatch",
      "outputs": [],
      "stateMutability": "nonpayable",
      "type": "function"
    },
    {
      "inputs": [
        {
          "internalType": "string",
          "name": "name",
          "type": "string"
        }
      ],
      "name": "registerFarmer",
      "outputs": [],
      "stateMutability": "nonpayable",
      "type": "function"
    },
    {
      "inputs": [
        {
          "internalType": "string",
          "name": "batchId",
          "type": "string"
        }
      ],
      "name": "suspendBatch",
      "outputs": [],
      "stateMutability": "nonpayable",
      "type": "function"
    },
    {
      "inputs": [
        {
          "internalType": "string",
          "name": "",
          "type": "string"
        }
      ],
      "name": "suspendedBatches",
      "outputs": [
        {
          "internalType": "bool",
          "name": "",
          "type": "bool"
        }
      ],
      "stateMutability": "view",
      "type": "function"
    }
  ],
  "bytecode": "0x608060405234801561001057600080fd5b50336000806101000a81548173ffffffffffffffffffffffffffffffffffffffff021916908373ffffffffffffffffffffffffffffffffffffffff160217905550611987806100606000396000f3fe608060405234801561001057600080fd5b506004361061009e5760003560e01c8063815d4e4211610066578063815d4e42146101725780638da5cb5b146101a2578063a883b042146101c0578063c012e976146101dc578063f9ca4274146101f85761009e565b8063401b2168146100a357806358ebc26c146100d35780635fb43022146100ef5780637ba7295e1461011f5780637ef1446a1461013b575b600080fd5b6100bd60048036038101906100b891906110ca565b61022d565b6040516100ca91906114d8565b60405180910390f35b6100ed60048036038101906100e891906110f3565b6102cd565b005b610109600480360381019061010491906110f3565b6103ce565b60405161011691906114bd565b60405180910390f35b610139600480360381019061013491906110f3565b610403565b005b610155600480360381019061015091906110f3565b61045a565b6040516101699897969594939291906115b5565b60405180910390f35b61018c600480360381019061018791906110f3565b610697565b60405161019991906114bd565b60405180910390f35b6101aa6106cd565b6040516101b791906114a2565b60405180910390f35b6101da60048036038101906101d59190611134565b6106f1565b005b6101f660048036038101906101f191906111b3565b610871565b005b610212600480360381019061020d91906110f3565b610aca565b6040516102249695949392919061153f565b60405180910390f35b6002602052806000526040600020600091509050805461024c9061186b565b80601f01602080910402602001604051908101604052809291908181526020018280546102789061186b565b80156102c55780601f1061029a576101008083540402835291602001916102c5565b820191906000526020600020905b8154815290600101906020018083116102a857829003601f168201915b505050505081565b60008054906101000a900473ffffffffffffffffffffffffffffffffffffffff1673ffffffffffffffffffffffffffffffffffffffff163373ffffffffffffffffffffffffffffffffffffffff161461035b576040517f08c379a0000000000000000000000000000000000000000000000000000000008152600401610352906116cf565b60405180910390fd5b600160038260405161036d919061148b565b908152602001604051809103902060006101000a81548160ff0219169083151502179055507f4637ed489bb91fdf9551831eea82b18eba0fb5b7d17452c9cf36d24259ad24c781426040516103c392919061167f565b60405180910390a150565b60006003826040516103e0919061148b565b908152602001604051809103902060009054906101000a900460ff169050919050565b80600260003373ffffffffffffffffffffffffffffffffffffffff1673ffffffffffffffffffffffffffffffffffffffff1681526020019081526020016000209080519060200190610456929190610ebc565b5050565b6001818051602081018201805184825260208301602085012081835280955050505050506000915090508060000180546104939061186b565b80601f01602080910402602001604051908101604052809291908181526020018280546104bf9061186b565b801561050c5780601f106104e15761010080835404028352916020019161050c565b820191906000526020600020905b8154815290600101906020018083116104ef57829003601f168201915b5050505050908060010160009054906101000a900473ffffffffffffffffffffffffffffffffffffffff16908060020180546105479061186b565b80601f01602080910402602001604051908101604052809291908181526020018280546105739061186b565b80156105c05780601f10610595576101008083540402835291602001916105c0565b820191906000526020600020905b8154815290600101906020018083116105a357829003601f168201915b5050505050908060030180546105d59061186b565b80601f01602080910402602001604051908101604052809291908181526020018280546106019061186b565b801561064e5780601f106106235761010080835404028352916020019161064e565b820191906000526020600020905b81548152906001019060200180831161063157829003601f168201915b5050505050908060040160009054906101000a900460ff16908060050154908060060160009054906101000a900460ff16908060080160009054906101000a900460ff16905088565b6003818051602081018201805184825260208301602085012081835280955050505050506000915054906101000a900460ff1681565b60008054906101000a900473ffffffffffffffffffffffffffffffffffffffff1681565b600183604051610701919061148b565b908152602001604051809103902060080160009054906101000a900460ff1661075f576040517f08c379a0000000000000000000000000000000000000000000000000000000008152600401610756906116ef565b60405180910390fd5b60018360405161076f919061148b565b9081526020016040518091039020600701829080600181540180825580915050600190039060005260206000200160009091909190915090805190602001906107b9929190610ebc565b50801561083357600180846040516107d1919061148b565b908152602001604051809103902060060160006101000a81548160ff0219169083151502179055507fc1c022b8044940142ac9ae4bb8c2e4536721bd23080a8e66cb1ecaa894b81b83838360405161082a929190611648565b60405180910390a15b7f5025ab643cc14602bbc15c2233559bb315875a5252e18e2a9199bb56d72985428383604051610864929190611648565b60405180910390a1505050565b600185604051610881919061148b565b908152602001604051809103902060080160009054906101000a900460ff16156108e0576040517f08c379a00000000000000000000000000000000000000000000000000000000081526004016108d7906116af565b60405180910390fd5b60606040518061012001604052808781526020013373ffffffffffffffffffffffffffffffffffffffff168152602001868152602001858152602001841515815260200183815260200160001515815260200182815260200160011515815250600187604051610950919061148b565b9081526020016040518091039020600082015181600001908051906020019061097a929190610ebc565b5060208201518160010160006101000a81548173ffffffffffffffffffffffffffffffffffffffff021916908373ffffffffffffffffffffffffffffffffffffffff16021790555060408201518160020190805190602001906109de929190610ebc565b5060608201518160030190805190602001906109fb929190610ebc565b5060808201518160040160006101000a81548160ff02191690831515021790555060a0820151816005015560c08201518160060160006101000a81548160ff02191690831515021790555060e0820151816007019080519060200190610a62929190610f42565b506101008201518160080160006101000a81548160ff0219169083151502179055509050507fc49c7db3f815af45ed1b42c8a1822ee267b994ccb6343f2b3a1015458ad5c1f6863387604051610aba939291906114fa565b60405180910390a1505050505050565b60606000606060008060606000600188604051610ae7919061148b565b908152602001604051809103902060405180610120016040529081600082018054610b119061186b565b80601f0160208091040260200160405190810160405280929190818152602001828054610b3d9061186b565b8015610b8a5780601f10610b5f57610100808354040283529160200191610b8a565b820191906000526020600020905b815481529060010190602001808311610b6d57829003601f168201915b505050505081526020016001820160009054906101000a900473ffffffffffffffffffffffffffffffffffffffff1673ffffffffffffffffffffffffffffffffffffffff1673ffffffffffffffffffffffffffffffffffffffff168152602001600282018054610bf99061186b565b80601f0160208091040260200160405190810160405280929190818152602001828054610c259061186b565b8015610c725780601f10610c4757610100808354040283529160200191610c72565b820191906000526020600020905b815481529060010190602001808311610c5557829003601f168201915b50505050508152602001600382018054610c8b9061186b565b80601f0160208091040260200160405190810160405280929190818152602001828054610cb79061186b565b8015610d045780601f10610cd957610100808354040283529160200191610d04565b820191906000526020600020905b815481529060010190602001808311610ce757829003601f168201915b505050505081526020016004820160009054906101000a900460ff16151515158152602001600582015481526020016006820160009054906101000a900460ff1615151515815260200160078201805480602002602001604051908101604052809291908181526020016000905b82821015610e1e578382906000526020600020018054610d919061186b565b80601f0160208091040260200160405190810160405280929190818152602001828054610dbd9061186b565b8015610e0a5780601f10610ddf57610100808354040283529160200191610e0a565b820191906000526020600020905b815481529060010190602001808311610ded57829003601f168201915b505050505081526020019060010190610d72565b5050505081526020016008820160009054906101000a900460ff1615151515815250509050806101000151610e88576040517f08c379a0000000000000000000000000000000000000000000000000000000008152600401610e7f906116ef565b60405180910390fd5b80604001518160200151826060015183608001518460c001518560e001519650965096509650965096505091939550919395565b828054610ec89061186b565b90600052602060002090601f016020900481019282610eea5760008555610f31565b82601f10610f0357805160ff1916838001178555610f31565b82800160010185558215610f31579182015b82811115610f30578251825591602001919060010190610f15565b5b509050610f3e9190610fa2565b5090565b828054828255906000526020600020908101928215610f91579160200282015b82811115610f90578251829080519060200190610f80929190610ebc565b5091602001919060010190610f62565b5b509050610f9e9190610fbf565b5090565b5b80821115610fbb576000816000905550600101610fa3565b5090565b5b80821115610fdf5760008181610fd69190610fe3565b50600101610fc0565b5090565b508054610fef9061186b565b6000825580601f106110015750611020565b601f01602090049060005260206000209081019061101f9190610fa2565b5b50565b600061103661103184611740565b61170f565b90508281526020810184848401111561104e57600080fd5b611059848285611829565b509392505050565b6000813590506110708161190c565b92915050565b60008135905061108581611923565b92915050565b600082601f83011261109c57600080fd5b81356110ac848260208601611023565b91505092915050565b6000813590506110c48161193a565b92915050565b6000602082840312156110dc57600080fd5b60006110ea84828501611061565b91505092915050565b60006020828403121561110557600080fd5b600082013567ffffffffffffffff81111561111f57600080fd5b61112b8482850161108b565b91505092915050565b60008060006060848603121561114957600080fd5b600084013567ffffffffffffffff81111561116357600080fd5b61116f8682870161108b565b935050602084013567ffffffffffffffff81111561118c57600080fd5b6111988682870161108b565b92505060406111a986828701611076565b9150509250925092565b600080600080600060a086880312156111cb57600080fd5b600086013567ffffffffffffffff8111156111e557600080fd5b6111f18882890161108b565b955050602086013567ffffffffffffffff81111561120e57600080fd5b61121a8882890161108b565b945050604086013567ffffffffffffffff81111561123757600080fd5b6112438882890161108b565b935050606061125488828901611076565b9250506080611265888289016110b5565b9150509295509295909350565b600061127e8383611319565b905092915050565b61128f816117e1565b82525050565b60006112a082611780565b6112aa81856117a3565b9350836020820285016112bc85611770565b8060005b858110156112f857848403895281516112d98582611272565b94506112e483611796565b925060208a019950506001810190506112c0565b50829750879550505050505092915050565b611313816117f3565b82525050565b60006113248261178b565b61132e81856117b4565b935061133e818560208601611838565b611347816118fb565b840191505092915050565b600061135d8261178b565b61136781856117c5565b9350611377818560208601611838565b611380816118fb565b840191505092915050565b60006113968261178b565b6113a081856117d6565b93506113b0818560208601611838565b80840191505092915050565b60006113c96018836117c5565b91507f426174636820616c7265616479207265676973746572656400000000000000006000830152602082019050919050565b60006114096009836117c5565b91507f4e6f74206f776e657200000000000000000000000000000000000000000000006000830152602082019050919050565b6000611449600f836117c5565b91507f4261746368206e6f7420666f756e6400000000000000000000000000000000006000830152602082019050919050565b6114858161181f565b82525050565b6000611497828461138b565b915081905092915050565b60006020820190506114b76000830184611286565b92915050565b60006020820190506114d2600083018461130a565b92915050565b600060208201905081810360008301526114f28184611352565b905092915050565b600060608201905081810360008301526115148186611352565b90506115236020830185611286565b81810360408301526115358184611352565b9050949350505050565b600060c08201905081810360008301526115598189611352565b90506115686020830188611286565b818103604083015261157a8187611352565b9050611589606083018661130a565b611596608083018561130a565b81810360a08301526115a88184611295565b9050979650505050505050565b60006101008201905081810360008301526115d0818b611352565b90506115df602083018a611286565b81810360408301526115f18189611352565b905081810360608301526116058188611352565b9050611614608083018761130a565b61162160a083018661147c565b61162e60c083018561130a565b61163b60e083018461130a565b9998505050505050505050565b600060408201905081810360008301526116628185611352565b905081810360208301526116768184611352565b90509392505050565b600060408201905081810360008301526116998185611352565b90506116a8602083018461147c565b9392505050565b600060208201905081810360008301526116c8816113bc565b9050919050565b600060208201905081810360008301526116e8816113fc565b9050919050565b600060208201905081810360008301526117088161143c565b9050919050565b6000604051905081810181811067ffffffffffffffff82111715611736576117356118cc565b5b8060405250919050565b600067ffffffffffffffff82111561175b5761175a6118cc565b5b601f19601f8301169050602081019050919050565b6000819050602082019050919050565b600081519050919050565b600081519050919050565b6000602082019050919050565b600082825260208201905092915050565b600082825260208201905092915050565b600082825260208201905092915050565b600081905092915050565b60006117ec826117ff565b9050919050565b60008115159050919050565b600073ffffffffffffffffffffffffffffffffffffffff82169050919050565b6000819050919050565b82818337600083830152505050565b60005b8381101561185657808201518184015260208101905061183b565b83811115611865576000848401525b50505050565b6000600282049050600182168061188357607f821691505b602082108114156118975761189661189d565b5b50919050565b7f4e487b7100000000000000000000000000000000000000000000000000000000600052602260045260246000fd5b7f4e487b7100000000000000000000000000000000000000000000000000000000600052604160045260246000fd5b6000601f19601f8301169050919050565b611915816117e1565b811461192057600080fd5b50565b61192c816117f3565b811461193757600080fd5b50565b6119438161181f565b811461194e57600080fd5b5056fea264697066735822122089f6e47f4595e31b934ae27cc814e97a3dfd5b257b6de1280da03078cfc863e564736f6c63430008000033",
  "linkReferences": {},
  "deployedLinkReferences": {}
}